:020000040000FA
:06000000CEEF06F0120035
:0600080004EF09F01200F4
:060018000CEF09F01200DC
:10002000090012000D0012000A0012000C0012005C
:1000300000EF09F012000201A36BA769A869A96982
:10004000A66B010EAA6F1200D9CFE6FFE1CFD9FF50
:10005000080EE1260201A35103E00201A30523E1FA
:10006000020108BF1FD0400EE66EC00EE66E000E05
:10007000E66E16EC03F0E552E552E5520201020E7F
:10008000A36F0101416B400E0101415D0BE20101D3
:100090004151EA6A000FE96E010EEA22EF6A01019E
:1000A000412BF1D790D1500E0001C05D73E10001EA
:1000B000C1512B6E2C6A2C3404E22B508008000EA8
:1000C0002C5406E2540E0001C15D0101406F05D0C1
:1000D000650E0001C1250101406FA30E0101401B07
:1000E0000001C2510101405D51E10101010EA76F04
:1000F000000EF66E000EF76E200EF86E0101416BD9
:10010000080E0101415D12E28BDFD9CF2BF0DACF6F
:100110002CF0010141510F012B24E96E000E2C201F
:10012000EA6EF5CFEFFF0101412BEAD70101500E36
:10013000006F580E0001C1190101026FDECF03F1FB
:10014000DDCF04F1020EDBCF05F1030EDBCF06F1AC
:100150000101076B120E086F096B0A6B01010B6B33
:10016000400E0C6F0D6B0E6B02010CBF0ED0400EDB
:10017000E66E000EE66E010EE66EE6EC02F0E5526B
:10018000E552E5520201010EA36F03D00001F00E0B
:10019000C06F06D00101A75103E10001F00EC06F4E
:1001A0000001C051F00A01E109D1A50A01E1F0D036
:1001B000010A01E1A0D0070A01E194D0010A36E06A
:1001C000030A01E0FFD0480E0201A46FA56B0201F3
:1001D000000EA45D010EA5591EE2A4C22BF0A5C21B
:1001E0002CF02D6A060E1F0B2BC0F6FF2CC0F7FF5C
:1001F0002DC0F8FF06E0D890F636F736F836E80658
:10020000FAE1940EA66E53D93DEC06F00201A42B40
:10021000000EA523DCD7F66AF76A200EF86E940E5E
:10022000A66E45D90201010EA36FCDD0200E0001AC
:10023000C35D05E11ED90201010EA36FC4D0E868B9
:100240000201A71905E1E868A81902E1E868A919FF
:1002500006E1C1C0A7F2C2C0A8F2C3C0A9F2A70EAE
:10026000E96E020EEA6EEE500001C11908E1EE508F
:100270000001C21904E1EE500001C31900E12EE1B2
:100280000101416B0001C5510101415D27E23A0EB8
:100290000001D880C55501014125EA6AC60FE96E03
:1002A000000EEA22EF50E66E0201A651EA6AAB0F99
:1002B000E96E020EEA22E552E750EF6E0201A62B2C
:1002C0000201A72B000EA823000EA923100E020185
:1002D000A65D01E182D80101412BD4D70201010EB4
:1002E000A36F71D07AD80201A769A869A969020130
:1002F000010EA36F68D00101540E006FC1C001F15F
:10030000C2C002F1C3C003F1C4C004F1C5C005F10D
:10031000C1C0F6FFC2C0F7FFC3C0F8FF0101416BC7
:100320000001C5510101415D21E2F00E0001C35DF4
:1003300001E119D075DE300EF85C08E1050EF65CBF
:1003400001E1F568080EF65C01E1F5683A0E00017E
:10035000D880C55501014125EA6A060FE96E010EF4
:10036000EA22F5CFEFFF0101412BDAD702010CBFE2
:100370000ED0400EE66E000EE66E010EE66EE6EC66
:1003800002F0E552E552E5520201010EA36F1BD0C7
:100390006492646A0101416BFF0E0101415D0CE250
:1003A000E868E85006E0E82AE806E82AE806E806F1
:1003B000F8D70101412BF0D7FF0005D06492646AA1
:1003C00037DE01D000D0080EE15C02E2E16AE552BE
:1003D000E16EE552E7CFD9FF12000101436BA6C2DF
:1003E0002BF02C6A2D6A2B500201A75DF66E2C5063
:1003F000A859F76E2D50A959F86E0F0EF614010189
:10040000446FF00EF616426B100E425D1AE2445134
:1004100011E10201A6510BE00101435152D8EF5006
:10042000F56E00DE0101432B0201A60707D0F56837
:10043000F9DD04D0F568F6DD010144070101422B26
:10044000E3D7F2DDA40EA66E32D80101426B0201A1
:10045000A6510101425D0CE24351422532D8EF50D2
:10046000E66E42512ED8E552E750EF6E422BEFD7A1
:100470001200C1C0F6FFC2C0F7FFC3C0F8FF010100
:10048000456B0001C5510101455D10E24551EA6A25
:10049000C60FE96E000EEA22EF50F56EC7DD840E3E
:1004A000A66E05D8BDDD0101452BEBD71200F29EEB
:1004B000550EA76EAA0EA76EA682A6B2FED7A69468
:1004C0001200EA6AAB0FE96E020EEA221200020184
:1004D00010511F0B010801E01200145101E012003D
:1004E000060E115D24E11351230A1FE0010A0DE0FD
:1004F000030A1BE1DCD801019B0505E10101B40EF3
:10050000836F0E0E846F090E0DD0D1D801019B05AB
:1005100005E10101290E836F0F0E846F01019B0518
:1005200004E11D0E0101876F886B01019A830201AE
:100530001051600BE842E842E842E842E842010814
:1005400001E0120011510B0A25E0080A17E0090A20
:1005500011E0080A09E00B0A05E0080A01E01200B0
:10056000CEEF02F0CFEF02F0A2D80101A00E836F10
:10057000010E09D09CD813C2A0F1120098D8010135
:10058000A10E836F010E846F01019A930101010E88
:10059000876F12008CD812C2A1F112001200120053
:1005A0000101A26B0F011E0E546F0201400E096F74
:1005B000200E0A6F020E0B6F880E086F0201600E8C
:1005C0000E6F020E0F6F400E0C6F1200D9CFE6FFB8
:1005D000E1CFD9FFE652FC0EDB50400805E2400EA9
:1005E000F36EFC0EF3CFDBFFDF6AFC0EDB50DF5C4B
:1005F0000FE2DF5050D8EF50E66EDF50EA6A600F2E
:10060000E96E020EEA22E552E750EF6EDF2AEDD7DF
:10061000FC0EDBCF0DF2400E02010C170C7D880E94
:100620000C13E552E552E7CFD9FF1200D9CFE6FF10
:10063000E1CFD9FF0101A26B020108BF26D0FC0E59
:10064000DBCF2BF00951D8802B5403E2FC0E09C2FA
:10065000DBFF0101A26BFC0EDB50A25D0FE2A25199
:10066000EA6A200FE96E020EEA22EF50E66EA2510E
:1006700012D8E552E750EF6EA22BEDD70201400EE3
:10068000096F0817087D880E08130101A251E55271
:10069000E7CFD9FF1200E76EFD0EDBCFE9FFFE0EBC
:1006A000DBCFEAFFE750E926000EEA221200010143
:1006B000020E826F120002011051600BE842E84204
:1006C000E842E842E842000901E012001151070A3D
:1006D00040E00B0A3EE0070A33E0010A23E00B0A80
:1006E0001FE0020A1DE0030A19E0080A10E0010AEF
:1006F0000CE00F0A08E0030A01E0120012D9010120
:10070000040E996F1200AAEF03F0E1EF03F009D98C
:1007100001019B0E836F010E846F0CD0FCEF03F080
:100720002EEF04F002D90101836F846B9C0E8327A6
:10073000010E842301019A930101010E876F1200BB
:10074000F4D8EA6A9C0FE96E010EEA2212C2EFFFAA
:1007500012001200800E0201105D32E11351030AF3
:100760001FE0010A0AE0030A29E1DBD80101900E2B
:10077000836F0E0E846F120E1ED0B2D8460EF62670
:100780000F0EC0D8020E0101F76A8325F66E845160
:10079000F7220900F5CF87F10A00F5CF88F10ED0D6
:1007A0009FD84A0EF6260F0EADD883C1F6FF84C13E
:1007B000F7FF0800F5500101876F886B01019A83EC
:1007C0001200AFD8070EE66E540EE66E0F0EA2D8DA
:1007D000010EE66E9C0EE66E010E9CD812C29BF1D5
:1007E0000201125104E10101050E996F120001018D
:1007F000060E996FD0EF02F00201186B196B02011F
:1008000010511F0B020A0FE0030A0BE0010A18E166
:1008100088D80201188101019AA112D0020118831F
:100820000FD07FD80DD050D801E0010E62D885C11D
:10083000E9FFEA6EEF50040B03E00201010E186FAE
:10084000010182050AE10101180E836F020E846F17
:1008500001019A930101020E876F12000201120535
:100860000EE110511F0B00090AE15BD8030E0201D3
:10087000115D03E101019A8102D001019A91020107
:10088000125121E110511F0B02081DE114510F0BF1
:10089000000919E019D801E0010E2BD8030E02015E
:1008A000115D02E1840E03D014AF07D0400E85C164
:1008B000E9FF86C1EAFFEF6E1200880E85C1E9FFED
:1008C00086C1EAFFEF6E120030D80F0B080DF3500F
:1008D0002C6A000F2B6E020E2C221451800B12007A
:1008E00020D802011251F66EF76AD890F636F73624
:1008F0001200040DF35001012B24856F000E2C20F3
:10090000866F1200F7220900F5CF83F10A00F5CFB8
:1009100084F11200E66EB4EC06F0E552E552E552C1
:1009200012000101010E826F1200FBDF020114515F
:1009300012007DD9E652635032E162960201005105
:100940003C0BE842E8420D0828E1180E021923E1A9
:10095000020E031920E1100E026F020E036FDF6A10
:10096000DF502B6E2C6A080E2B5C000E2C5813E205
:10097000DF50EA6A180FE96E020EEA22EF50E66EC7
:10098000DF50EA6A100FE96E020EEA22E552E750E4
:10099000EF6EDF2AE5D70ED80AD03FD808D0040E74
:1009A000635C03E1629650D802D0000E01D0010EC4
:1009B000E55242D13CD9E652020104BF046B010169
:1009C000896B816B826B876B886B5BEC03F0DF6AF2
:1009D000DF502B6E2C6A010E2B5C000E2C581AE295
:1009E0000101825117E1F76ADF34FE0BF736F66E2C
:1009F000500EF6260F0EF7220900F5CF2BF0080057
:100A0000F5CF2CF004D02CC0FAFF2B50F96EFBDF91
:100A1000DF2ADED7B7D8E5520FD1020E0101815D82
:100A20000EE184D80201180E026F020E036F080E49
:100A3000016F00BD02D0C80E05D0880E03D0DBD8F0
:100A4000E7D88C0E006F1200040E0101995D0CE1D5
:100A500012C25CFF0F015C51000803E20101050EA8
:100A600002D00101030E996F0101810510E111D837
:100A7000020E0101895D03E10201840E06D002012C
:100A800004BD02D0C80E01D0880E046F1200FBEF27
:100A900005F0CDD8020EE1260101080E875D000E9B
:100AA00088590DE287C1DEFF88C1DDFF895102E16F
:100AB000010E03D0890506E1020E896F03D0080EEE
:100AC000DE6EDD6A020104930491010EDB50041313
:100AD000DFCF05F2000EDB500101875F010EDB5016
:100AE000885B180E856F020E866F01019AA30CD0E9
:100AF00097D815E083C1F6FF84C1F7FF0800F550D1
:100B00007FD8F6E2DB06F4D78BD809E083C1E9FF92
:100B100084C1EAFFEF5074D8F7E2DB06F5D7020E86
:100B2000E15C02E2E16AE552E16E86D080D8020E15
:100B3000E126030E02010015E76E010EE7CFDBFF91
:100B400001C2DFFFDE5001018727DD508823180E28
:100B5000836F020E846F64D80EE083C1E9FF84C105
:100B6000EAFFEF5085C1E9FF86C1EAFFEF6E68D862
:100B7000F2E2DB06F0D7020EE15C02E2E16AE55246
:100B8000E16E5AD064980101825105E141D8840E8A
:100B9000006F02011DD0020110AF1CD0010187516E
:100BA0000201165D010188510201175904E216C2C3
:100BB00087F117C288F16DDF0101010E816F28D81E
:100BC000800E006F0201180E066F020E076FC80E2E
:100BD000046F12000101020E816F0201056BC80E45
:100BE000046F0201080E016F180E026F020E036FF0
:100BF000C80E006F12000101816B0201046B12002C
:100C000085C1E9FF86C1EAFFEF6E010120EF06F022
:100C10000201080E016F100E026F020E036F120028
:100C2000D9CFE9FFDACFEAFFEE50ED101200D9CFAD
:100C3000E6FFE1CFD9FF1200E552E7CFD9FF12005E
:100C4000852B000E8623832B8423DF06010E1200E2
:100C500064A60CD80101990508E164BA06D0626A5D
:100C6000606A60806088020E996F1200646A606A30
:100C700064860101010E996F12000101995101E191
:100C8000120062B424D864B2120062B039D862B8DB
:100C900017D862BA23D8030E0101995D01E2120050
:100CA0000101A66B040EA65D0AE262A608D099ECCB
:100CB00004F0000901E162960101A62BF3D71200AE
:100CC000608462986482A194A084A09412006492CB
:100CD000609462A402D06294FCD712000F0153A169
:100CE0000DD0800E0201005D07E1840E0201045D5B
:100CF00003E102018C0E006F0F015391629A120002
:100D00000F015F6B626A0F019F0E5B6F7B0E606E5F
:100D10000F015C6B070EE66E540EE66E0F0EE66E6C
:100D200023D8E552E552E5520F01160E536F62A625
:100D300005D0629600D000D00000F9D76498FBEC93
:100D400005F00201080E016F0201100E026F020E83
:100D5000036F02018C0E006F01019A9101019B6BE0
:100D60000101030E996F1200D9CFE6FFE1CFD9FF41
:100D7000FD0EDBCFE9FFFE0EDBCFEAFFFC0EDB5002
:100D800004E0EE6AFC0EDB06F9D7E552E7CFD9FFA7
:100D9000120010EE60F020EE60F01200F26A600EB9
:100DA000D36E8A9893988A9A939A8B9A949A8B9EE8
:100DB000949E0101A4690101A36B8A8A8A98E9DFE4
:100DC000140E616E0101996B01019A6B01019B6B1D
:100DD0001BEC00F001019D6B9E6B9F6B28EC06F0F5
:100DE0003DEC06F00101010EA36F060E0101995DB5
:100DF00005E16450020B02E124EC00F0010199517D
:100E0000020803E20101010E9F6F0201A35125E1D7
:100E1000010EE66E31EC07F0E55201019D2B000E4C
:100E20009E239F0511E10101020EA36F9DC12BF0CE
:100E30009EC12CF02D6A500E2B18D0E1C30E2C1839
:100E4000CDE12D50CBE106D0880E9D19C7E1130EE0
:100E50009E19C4E118EC00F0C1D70101040EA36F84
:020E6000BDD7FC
:0E0E6200FF0EE3502F6E480E01D04C0EE76ECF
:100E7000E72EFED7E76AE72EFED72F2EF7D7000022
:020E800012005E
:0E0E82000100720F0000A70100000100000037
:100E90001201000200000008D8043C5502000102C3
:100EA000000109022900010100C03209040000020A
:100EB00003000000092111010001221D0007058126
:100EC0000340000107050103400001040309043445
:100ED000034D006900630072006F006300680069E1
:100EE000007000200054006500630068006E006F11
:100EF000006C006F0067007900200049006E0063FD
:100F0000002E0026034800490044002000550053ED
:100F1000004200200042006F006F0074006C006F00
:100F20000061006400650072000600FF0901A10174
:100F300019012940150026FF007508954081001908
:100F40000129409100C0A20EA20ECB0ECF0E030FBE
:020F5000CE04CD
:0E0F5200000EF36E00EE00F0030E01D8120048
:100F6000EA6002D0EE6AFCD7F350E9601200EE6A44
:020F7000FCD7AC
:010F7200007E
:061200008FEF0EF012005A
:061208000FEF09F01200D7
:0812180011EF09F012000DD8DE
:101220001100D8CFE4FFE0CFE4FFE46E06D8E5502C
:10123000E5CFE0FFE5CFD8FF1000DACFE4FFE652BC
:08124000E552E5CFDAFF1200D0
:081248003E0EC06EC16A180ED3
:10125000C26EC280780EE66EFEEC11F0E552C282DC
:10126000C2B2FED7C45012005CDA020EE126FE0EB6
:10127000DB50DF6E5FDADB50980802E2DF0603D056
:10128000FE0EDB50DF6EDF50F5E1020EE15C02E2A4
:10129000E16AE552E16E4AD244DA030EE126D76AEA
:1012A000D66AFE0EDB50DF6E020EDB6AD650D7BE6A
:1012B00002D0020EDB2A020EDBB603D0080EE66E69
:1012C00001D0E66A72EC0FF0E55234DA980E60DA7B
:1012D00006E2010EDB50100802E2DF0603D0FE0E2C
:1012E000DB50DF6E43DA09E0FC0EDB06FD0E01E2A7
:1012F000DB063CDA02E1010E03D0DF50D7E1000E3D
:101300002B6E030EE15C02E2E16AE552E16E2B50C6
:101310000DD207DA040EE126010EDB6A040E38DA7C
:1013200028E2030EDB6A800EF36E020EF3CFDBFFC2
:10133000DF6A080EDF5C15E2020EDBCFE6FF010E6E
:10134000DB50E1D9EF50E552E71402E0030EDB2A4F
:10135000020EDBCFF3FFF390F342F3CFDBFFDF2A84
:10136000E8D7030EDBA002D0010E04D0010EDB2A69
:10137000D5D7000E2B6E040EE15C02E2E16AE55265
:10138000E16E2B50D3D1CDD9030EE126020EDB6ADC
:10139000DF6A040EDF5C56E2DF50B5D9EF500F0B69
:1013A0000FDADB50070A12E00C0A0CE0060A06E02E
:1013B000030A20E1020EDB50030A0AD0020EDB50C2
:1013C000020A06D0020EDB50010A02D0020EDB50E8
:1013D000E76E020EE7CFDBFFDF5095D9EF50F00B41
:1013E000EFD9DB50700A14E0C00A0EE0600A08E092
:1013F000300A02E0010E2DD0020EDB500C0A0AD09A
:10140000020EDB50080A06D0020EDB50040A02D09E
:10141000020EDB50E76E020EE7CFDBFFDF5003E08A
:10142000020EDF5C07E1020EDB50100D020EF3CF5F
:10143000DBFF06D0DF5067D9020EDBCFEFFFDB6AA0
:10144000DF2AA7D70101010E466F49C148F1496B58
:10145000000E2B6E030EE15C02E2E16AE552E16EE2
:101460002B5064D16DBC07D0D6CF52F1D7ACFAD790
:10147000F36AF46A1200D7CF53F1D76AD66A010132
:101480005251531103E1522B000E532352C1F3FF6B
:1014900053C1F4FF12006DAC07D0D6CF54F1D7ACD6
:1014A000FAD7F36AF46A1200D7CF55F1D76AD66A31
:1014B00001015451551103E1542B000E552354C121
:1014C000F3FF55C1F4FF12002CD970D9CBDF67D9D7
:1014D0005EE0E1DF64D95BE001015A6B0F0E606FE3
:1014E0005C6B5B6B616B5D6B466B476B486B496B11
:1014F000B9DF0FD94CE0CFDF0CD949E0B3DFF3CF30
:1015000056F1F4CF57F10101F350F41040E0C3DF7E
:1015100000D93DE05F6B5851565D5951575901E272
:101520005F2B60BF0DD05F516013010E601903E1A6
:10153000800E606F15D0609F60470F0E601710D04F
:101540005F5161135B2B080E5B5D08E15C51DBD8DA
:1015500061C1EFFF5C2B616B5B6B02D0619F6147E8
:101560005D2B500E5D5D13E0040E5C5DC7E15A51CA
:1015700002E105D90ED046514E5D09E147514F5D5C
:1015800006E14851505D03E14951515D02E0010E11
:1015900006D05A2BFE0EDB505A5DA0E1F4DEC6D019
:1015A000C0D804D978DFA7D872E007D970E06A6B99
:1015B000706B716B6D6B666B676B466B476B486BE3
:1015C000496B69DF98D863E0F8D861E0C6D85FE07E
:1015D000F4D85DE062516425686F63516521696FDD
:1015E0006651671107E06451665D6551675902E213
:1015F000010E706F68C166F169C167F16D2B500E05
:101600006D5D45E07051E2E0706B6B6B6C6BA5D863
:101610003EE0D3D83CE0FF0E705D12E0709F704753
:101620006251645D6351655901E270816B2B030E59
:101630006B5D1AE1020E705D2AE16B6B706914D06C
:101640006251645D6351655901E271816B2B080E33
:101650006B5D08E16B6B6C516C2B55D871C1EFFF62
:10166000716B02D0719F7147040E6C5DD0E16A51BD
:1016700002E185D80ED046514E5D09E147514F5DDC
:1016800006E14851505D03E14951515D02E0010E10
:1016900019D06A2BFE0EDB506A5D8AE13ADE000942
:1016A0000EE0010149B102D0498101D0499151B107
:1016B00002D0518101D051912CDE000902E1000ECF
:1016C00001D0010E33D0F26A600ED36E900ED56E4B
:1016D000020EE66EF9DEE552000902E133D8020C93
:1016E000020EE66E5DDFE552000902E12BD8040C24
:1016F000620ED36E000CF3CF64F1F4CF65F10101FB
:10170000F350F4101200EA6A460FE96E010EEA2265
:101710001200F3CF58F1F4CF59F10101F350F41056
:101720001200D9CFE6FFE1CFD9FF1200E552E7CF93
:10173000D9FF1200050EE66EE7EC11F0E55284DDEC
:10174000E0EF0BF04EC14AF14FC14BF150C14CF1EB
:1017500051C14DF1620ED36E12009DDEF3CF62F1E6
:10176000F4CF63F10101F350F4101200D950FC0FD3
:10177000E96EFF0EDA20EA6EEE50ED10120046C15F
:101780004EF147C14FF148C150F149C151F112002A
:10179000F36E010EDBCFF4FFF350F45C1200F3CFD5
:1017A0002BF0F4CF2CF0F350F4101200D90E6D6E24
:1017B0006B6A6C6AD76AD66A120054DE7BEF0BF054
:1017C000E76E010EE7CFDBFF1200B00EBA6EC00E5F
:1017D000BB6EBAACFED70101776B746B756B7A6B1D
:1017E00077C1BCFF640EE66EFEEC11F0E55201011C
:1017F000796B500E7B6F120E7C6F786B6DBC782B03
:10180000766B6DBC762B7851765D03E0792B76C1D3
:1018100078F17B07000E7C5B7B517C1103E0020EAC
:10182000795DEEE37B517C1109E07A5105E177C1E6
:1018300074F1010E7A6F02D077C175F1772B200E0B
:10184000775DCEE3755101E1010C7451755DFE0BBE
:10185000E842786F74517825776FE8501F0801E2ED
:10186000010C77C1BCFF000C12001200B36AB26A0F
:10187000A1926DAC03D0A1A2FCD7010C000CB36AFD
:10188000B26AA1926DBC03D0A1A2FCD7010C000CDE
:10189000D6500101725DFCE1D750735DF9E1120091
:1018A000D9CFE6FF160EE126000E2B6E160EE15C78
:1018B00002E2E16AE5520CD0D9CFE6FF020EE12642
:1018C000000E2B6E020EE15C02E2E16AE55200D0EE
:1018D000E16E2B50E552E7CFD9FF1200F00EE66E15
:1018E000D7EC11F0E5528C0EE66ED7EC11F0E55214
:1018F0001200010EB96EF2DF050EB96E6EEF0CF03C
:1019000084EC11F0010EE66E9AD88EC18AF18FC177
:101910008BF190C18CF191C18DF1020EE66E8FD8E2
:101920000101100E8A6F140E8B6F800E8C6F400EAB
:101930008D6FE66A1FEF0DF087D8020EE126E0DF1B
:10194000D8DF030EDF6E00010C6B0D6B0E6B0F6B9F
:10195000106B116B126B136BE2EC0FF0E76E010E64
:10196000E7CFDBFFDF06DF5003E0010EDB50EBE1EA
:10197000010EDB5002E0010E1CD0000115510001E8
:101980000D5D16E10001165100010E5D11E100012F
:10199000175100010F5D0CE1000118510001105DAD
:1019A00007E1000119510001115D02E1000E01D0B3
:1019B000010E2B6E020EE15C02E2E16AE552E16E7D
:1019C0002B5047D041D8B8DF000902E1000E04D007
:1019D000FE0EDB06F8E1020E3CD036D8020EE12600
:1019E000CFEC0FF0000902E0010E01D0000E2B6ECB
:1019F000020EE15C02E2E16AE552E16E2B5029D071
:101A0000CFEC0FF0000901E0000CE2EC0FF0000950
:101A100001E0000C00010C6B126B136B080C14D866
:101A2000E652FE0EDB50DF6ED8DF000903E1FE0E4A
:101A3000DB50DF6EDF06DF50F7E1E5520AD037EC0E
:101A400011F0E5526EEF0CF0D9CFE6FFE1CFD9FFF0
:101A50001200E552E7CFD9FF12002BD9E652DF6A18
:101A6000FA0EDB50000819E2DF50E76EFD0EDBCF07
:101A7000E9FFFE0E44D9EFCF2BF0DF50E76EFB0EEF
:101A8000DBCFE9FFFC0E3BD9EF502B5C02E0010EEF
:101A900005D0FA0EDB06DF2AE3D7000EE55236D179
:101AA00008D9E652FE0EDB50DF6E18D902E0DF06E1
:101AB00003D0FE0EDB50DF6EDF50F7E1E55226D19A
:101AC000F8D80B0EE126DAEC12F0000942E1FAEC4C
:101AD00012F006EC13F000093AE1DF6A080EDF5C51
:101AE00013E205D9E66ED950010F2B6EDACF2CF038
:101AF000DF500F012B24E96E000EDA20EA6EE5526A
:101B0000E750EF6EDF2AEAD7DAEC12F000091FE1A6
:101B1000FAEC12F006EC13F0000919E1DF6A080E86
:101B2000DF5C13E2D950010F2C6EDACF2DF0DF50BD
:101B30000F012C24E96E000EDA20EA6EEFCF2BF0B5
:101B4000D6D82B5C04E1DF2AEAD7000E03D0020EC0
:101B500001D0010E2B6E0B0EE15C02E2E16AE55250
:101B6000A5D0D8D8DAEC12F0000905E1DF06010EA5
:101B700003E2DB0601D0A2D8A7D8F4E32B6E020E55
:101B8000E15C02E2E16AE55291D0C4D8A7D805E150
:101B9000DF06010E03E2DB0601D090D8FB0EDB0668
:101BA000FC0E01E2DB06D950FB0FE96EFF0EDA20D6
:101BB000EA6EEE50ED1002E1010E03D085D8E6E3A7
:101BC000000E2B6E020EE15C02E2E16AE5526ED07D
:101BD00070D876DF000902E1010E04D0FE0EDB06AC
:101BE000F8E1000E93D065D8020EE126DE52050E14
:101BF000DD6EDF6848EC12F0000911E1010EE66EBF
:101C000084EC12F0E552DF6EDF5003E15DEC12F080
:101C1000DF6EDF501DE1E66A84EC12F017D017EC9E
:101C200012F0000903E12CEC12F011D0010EE66E67
:101C3000B5EC12F0E552DF6EDF5003E199EC12F0E3
:101C4000DF6EDF5005E1E66AB5EC12F0E552DF6EBB
:101C5000DF501AE1020EDF6E140EE66EB9DFE552B8
:101C6000010812E1080EE66E140EE66E000EE66E36
:101C70000C0EE66E000EE66EF0DE2B6E050EE15EDB
:101C80002B50000901E1DF6ADF0402E1010E07D0F9
:101C9000010EDB06DB5002E0DF50ABE1DF502B6EC4
:101CA000020EE15C02E2E16AE55200D0E16E2B50E7
:101CB0002DD0D9CFE6FFE1CFD9FF1200FD0EDBCF4B
:101CC000DEFFDBCFDDFF1200D9CFE9FFDACFEAFF7D
:101CD000000ED880EE54000EED541200050EE66E94
:101CE000E7EC11F0E552DAEC12F000091200DF50D7
:101CF000EA6A0C0FE96E000EEA22EF501200DBCF09
:101D0000EAFFE750E926000EEA221200E552E7CF8B
:101D1000D9FF1200CEDF020EE1265EEF0EF0FC6A64
:101D20006DEC0FF0620ED36E9B8CF26A780EF16E42
:101D3000F06AC26A6D6A6B6A9D6AA06A9F6AA26A4B
:101D4000D09E776A786A7E6E7F6A8B808B828B8466
:101D5000948C8B9694968B9A949A8B9894988A9E4E
:101D6000939E8B9E949E8A9893988A9A939A8A9C23
:101D7000939C900ED56EA50ECD6E040ECA6EA90E64
:101D8000B16EA192A082B66AB76A050EB96ECB6831
:101D9000800EBE6EA7EC0FF0040E9AD8620ED36EC2
:101DA000050EB96E0C0EBD6E0F0ECB6E080EBE6E1C
:101DB0000A0EE66EFEEC11F0E5520101946B9451AF
:101DC00004E100EC0DF00101946F945107E1010E64
:101DD000E66EE8EC0DF0E5520101946F9451EDE0F0
:101DE000080EE66E6BD8080E0101945D1EE1050E2B
:101DF0006AD80101926B080E925D02E24CD8FBD7C3
:101E00000A0EE66EE2EC0CF0E5520101936FE85029
:101E100004E1E66A53D80A0E56D8020E0101935D1A
:101E200004E1A0EC0FF0140E4ED801019405B4E1CA
:101E30000A0EE66E50EC0DF0E552080E49D801018D
:101E4000926B080E925D02E226D8FBD7900EE66EEA
:101E5000010EE66E140EE66EE66AC5EC0DF0E55274
:101E6000E552E552E55200090EE1F3EC0DF00101F7
:101E7000936FE85003E1E66A21D807D0020E28D814
:101E8000ADEC0FF002D0A0EC0FF0140EE66E50ECAB
:101E90000DF0E55281D79251EA6A0C0FE96E000EFF
:101EA000EA22EF50E66E9251EA6A140FE96E000ED4
:101EB000EA22E552E750EF6E922B120072EC0FF01F
:101EC000E552A7EF0FF0E66E0FEC0DF0E5521200B1
:101ED000E66E72EC0FF0E552120010EE60F020EEAC
:101EE00060F01200D9CFE6FFE1CFD9FF8A9A8A9835
:101EF000FE0EDBB48A8ADBB68A88E552E7CFD9FFCB
:101F00001200D9CFE6FFE1CFD9FFD950FC0FE96E1F
:101F1000FF0EDA20EA6EEE50ED100CE08B8A8B9EFD
:101F200037D88B9A8B8E34D8FC0EDB06FD0EEDE293
:101F3000DB06EBD78B9A8B9EE552E7CFD9FF1200D9
:101F4000E80EE66E030EE66E210EC2EF0FF0800E75
:101F5000E66EE66A210EC2EF0FF03C0EE66EE66A10
:101F6000640E10D81E0EE66ED7EC11F0E5521E0E70
:101F7000E66ED7EC11F0E552690EE66EE66A960E53
:101F8000C2EF0FF0E66EBDDFE552E552E5521200FA
:0E1F9000FE0EDBCFE6FFFEEC11F0E552120074
:021F9E00050E2E
:101FA0001C6E080E1F6E02EEEBF036D80AE002D06F
:101FB0008FD807E0A7D81F2EFBD71F861C2EF8D777
:101FC000000C010C120EF3EC0FF0D8B4010C8AECEB
:101FD00010F0000907E009EC11F08AEC10F000099C
:101FE00001E0010C000C1C6E080E1F6E02EEEBF0FF
:101FF00013D810E002D06CD80DE084D8D89082BC01
:10200000D880EF361F2EF7D7EE501F861C2EF3D741
:10201000D894000CD884010C820E1D6ECF6ACE6A53
:102020001E6A82BC1E06CF6ACE6A9E9068EC10F0D3
:1020300068EC10F068EC10F049E024C020F025C0F6
:1020400021F01D4E43D068EC10F040E024C022F097
:1020500025C023F0D890233222322450205C276EF2
:1020600025502158286E269028AE06D0268027506D
:102070000008276E000E28562750225C285023584F
:10208000DCE226B00BD024C020F025C021F068ECA3
:1020900010F01CE02050242621502522D890253213
:1020A000243225C02AF024C029F0D89025322432C9
:1020B000D890253224322450292625502A2229500E
:1020C0000008296E000E2A56D8941200D8841200F7
:1020D0008250400B1E6E9EB013D01E508218400BD3
:1020E000D8B4F9D7CECF24F0CFCF25F0CF6ACE6ABF
:1020F0009E90C00E245C080E255802E2D89412006F
:10210000D88412002AC0B3FF29C0B2FFA192A1A2B5
:10211000FED71200120E1C6E080E1F6EF8EC10F0A7
:10212000EBC2E8FF030B010804E1ECC2E8FFFF0883
:1021300005E01F2EF3D71C2EEFD747D01E6A0A0EDC
:102140000001206E00EE00F0EDC2E8FFE6EC10F0BA
:10215000F0E10201EDBF1E7EEDBD1E7CEDBB1E7ADF
:10216000EDB91E78ED51E840E840E840E8400F0B3B
:10217000EE6EF8EC10F0F8EC10F0F8EC10F0F8EC73
:1021800010F0F8EC10F00001202EDED7EDC2E8FFD1
:102190001E18F00BCEE10001003800010110116E95
:1021A0000001023800010310106E00010438000124
:1021B00005100F6E00010638000107100E6E0001B9
:1021C0000838000109100D6E000C010C0001216E91
:1021D0001D6A21BE1D2A21BC1D2A21BA1D2A21B833
:1021E0001D2A2150E830E830E8301D18010B12009C
:1021F000E9CFFEF2EACFFFF202EEFCF00201EB358E
:10220000120EED36E82CFDD7FEC2E9FFFFC2EAFF51
:10221000120002EEEBF0120EEE1EE82CFDD71200BB
:10222000D8B409D00000FF0EB36E5D0EB26EA1925D
:10223000A1A2FED712D0FF0EB36ECB0EB26EA1924A
:10224000A1A2FED70AD0B994FF0EB36E550EB26E9E
:10225000A192A1A2FED7B9841200B994FF0EB36E69
:102260005F0EB26EA192A1A2FED7B9841200FF0E3A
:10227000E3CF1CF001EE8AF0040E206EE4DF00D004
:1022800000D0D894CDDF00D000001C50800BC8DFF8
:1022900000D000D0D884C4DF00D00000EF50800B05
:1022A000BFDF00D00000EF50400BBADF00D00000CD
:1022B000EF50200BB5DF00D00000EF50100BB0DF67
:1022C00000D00000EF50080BABDF00D00000EF5053
:1022D000040BA6DF00D00000EF50020BA1DF00D0FE
:1022E0000000EE50010B9CDF202ED8D700001C50C0
:1022F000040B96DF00D000001C50020B91DF00D0D1
:1023000000001C50010B8CD701EE8AF0FF0EEE6E20
:10231000800EEE6E000EEE6EEE6EEE6EEE6EEE6EF9
:10232000EE6E01EE8BF0800E1D6E1E6A193817D806
:10233000195015D8183813D8185011D817380FD885
:1023400017500DD816380BD8165009D8153807D89D
:10235000155005D81E5003D81D1CEF1612001F6E15
:1023600022D81C6A1FA604D01C701E761D50EF12C6
:102370001AD81FA404D01C701E741D50EF1213D85D
:102380001FA204D01C701E721D50EF120CD81FA08B
:1023900004D01C701E701D50EF1205D81CA002D076
:0E23A0001D50EF1212001D421DBEEE50120025
:0223AE00FF0E20
:1023B000E3502F6E480E01D04C0EE76EE72EFED78D
:1023C000E76AE72EFED72F2EF7D700001200FF0E88
:1023D000E3502F6EEF0E01D0F30EE76EE72EEEEF17
:1023E00011F00C0E2E6EE76AE72EF4EF11F02E2E90
:1023F000F3EF11F02F2EECEF11F01200FF0EE3506F
:10240000E84E1200000000D000D000D0E82EFAD72D
:102410001200FF0EE3502F6E1B0E00D001D0200ED5
:0E242000E76EE72EFED72F2EFAD700D012005F
:02242E00D7D8FD
:102430005FE03C0E29D9000E27D9000E25D9550E94
:1024400023D946D91C6E8B88C80E5ED98B981C5038
:10245000BE08D8A4020C000CC2D84AE03C0E14D925
:10246000000E12D9000E10D9080E1E6E00EE14F0E8
:10247000EF500AD92DD9820E47D98B88010E44D945
:102480008B98150E4BD924D9E92A1E2EF1D7000CB2
:1024900025903ED80108D8B4010C2BD8E8B0010C27
:1024A000E8BE020C258034D80108D8B4010C21D82C
:1024B000E8B0010CE8AE020C000C00EE14F0EFECFA
:1024C00012F016E0D50E44EC13F0080E226E080E42
:1024D000236EEE50246E24A029EC13F024B033ECCC
:1024E00013F055D82432232EF6D7222EF0D7000C25
:1024F000010CEFEC12F0FCE0B50E44EC13F068ECCC
:1025000013F0E840800B1200FF0EE350010B256E24
:10251000266AEFEC12F0ECE0C10E26A0D10E44ECDE
:1025200013F025A029EC13F025B033EC13F02FD8CD
:10253000000C00EE14F0EFEC12F0DAE0D50E44ECF3
:1025400013F0080E226E080E236EEE50246E241E29
:1025500024A029EC13F024B033EC13F018D8243263
:10256000232EF6D7222EEFD7000CFF0EE350256E58
:10257000EFEC12F0BDE01D0E44EC13F025B029EC99
:1025800013F025A033EC13F0C7EC12F0000C02D8C6
:1025900001D81200FF0E84EC13F0FF0E84EC13F050
:1025A000FF0E84EC13F0FF0E84EC13F0FF0E84ECAE
:1025B00013F012008B98F00EA7D88B88960EA4D833
:1025C0008B980F0EA1D880B607D03C0E9DD880A660
:1025D00003D04B0E99D8000C4B0E96D8010C640E0C
:1025E0001E6EE8DF000904E01E2EFBD7D884010C24
:1025F000D894000C330E48D800EE0CF0080E1E6E76
:1026000067D8EF6EE92A1E2EFBD7120004D81318E4
:1026100001E1000C010C00EE0CF01F6A070E1C6EAD
:10262000080E1D6EEF501E6E1F18206E20301F50BA
:10263000D8B0180A206E20301F6ED8901E321E505F
:102640001D2EF2D7E92A1C2EEBD71F501200E8A04E
:102650000AD000008B88000050D800008B98000042
:102660000D0E52D80AD000008B8800000D0E4CD8F9
:1026700000008B98000041D800D000D000D000D0DE
:1026800000D000D000D012001C6E080E1D6E1C324F
:10269000D8A00AD000008B8800002FD800008B98AB
:1026A00000000D0E31D80BD000008B8800000D0EFD
:1026B0002BD800008B98000020D81FD81ED81D2EC4
:1026C000E6D71200010E1C6E1D6A05D81D441200CB
:1026D000080E1C6E1D6A00008B8800000ED80000DA
:1026E0008B9800000AD8D89080B6D8801D32090E89
:1026F0000BD81C2EF0D71D50120083EC13F083EC86
:1027000013F083EF13F012002F6E8AEC13F02F2ECC
:10271000FCD7120000008DEF13F012002E6EF4DFD4
:10272000F3DFF2DFF1DFF0DFEFDFEEDFEDDFECDF35
:10273000EBDFEADFE9DFE8DFE7DFE6DFE5DFE4DF65
:0C274000E3DFE2DFE1DF2E2EEAD712001B
:020000040020DA
:080000000400000000000000F4
:020000040030CA
:0100000000FF
:01000100926C
:0100020022DB
:0100030000FC
:0100050000FA
:010006008178
:0100080000F7
:0100090000F6
:01000A0003F2
:01000B00E014
:01000C0003F0
:01000D0040B2
:00000001FF
